:100000000C9498000C94C0000C94C0000C94C00098
:100010000C94C0000C94C0000C94C0000C94C00060
:100020000C94C0000C94C0000C94C0000C94C00050
:100030000C94C0000C94C0000C94C0000C94C00040
:100040000C94E4030C94C0000C9454040C942E04FF
:100050000C94C0000C94C0000C94C0000C94C00020
:100060000C94C0000C94C0005A7375744574686594
:10007000726E65745544503A3A626567696E5061B4
:10008000636B657428636F6E73742063686172209C
:100090002A686F73742C2075696E7431365F742012
:1000A000706F7274293B206973206E6F74207375B2
:1000B00070706F727465642120536F7272792100C1
:1000C0005D0032333A34303A3337002C2000446537
:1000D000632020382032303233002C2000433A5C39
:1000E00055736572735C66696C69705C446F776E9A
:1000F0006C6F6164735C536572766572325C5365D4
:1001000072766572322E696E6F0054656D7065721D
:10011000617475726520436C69656E7420536572F5
:1001200076657220696E69742E2E2E205B0099040C
:1001300011241FBECFEFD8E0DEBFCDBF11E0A0E09D
:10014000B1E0ECEFF4E102C005900D92A435B107E7
:10015000D9F722E0A4E5B1E001C01D92A734B207AF
:10016000E1F710E0C8E9D0E004C02197FE010E9449
:100170009107C739D107C9F70E9418050C947C0A6A
:100180000C940000AF92BF92CF92DF92EF92FF9259
:100190000F931F93CF93DF936C017B018B01040FAF
:1001A000151FEB015E01AE18BF08C017D10759F04B
:1001B0006991D601ED91FC910190F081E02DC6018D
:1001C0000995892B79F7C501DF91CF911F910F9187
:1001D000FF90EF90DF90CF90BF90AF900895FC011B
:1001E000538D448D252F30E0842F90E0821B930B9C
:1001F000541710F0CF96089501970895FC01918D42
:10020000828D981761F0A28DAE0FBF2FB11D5D9644
:100210008C91928D9F5F9F73928F90E008958FEFE6
:100220009FEF0895FC01918D828D981731F0828D9A
:10023000E80FF11D858D90E008958FEF9FEF0895F1
:10024000FC01918D228D892F90E0805C9F4F821B55
:1002500091098F73992708958FE591E00E942001FD
:1002600021E0892B09F420E0822F089580E090E0BE
:10027000892B29F00E942C0181110C940000089513
:10028000FC01A48DA80FB92FB11DA35ABF4F2C910B
:10029000848D90E001968F739927848FA689B78902
:1002A0002C93A089B1898C91837080648C93938DF9
:1002B000848D981306C00288F389E02D80818F7D9C
:1002C00080830895EF92FF920F931F93CF93DF9354
:1002D000EC0181E0888F9B8D8C8D98131AC0E88982
:1002E000F989808185FF15C09FB7F894EE89FF8951
:1002F0006083E889F98980818370806480839FBFEF
:1003000081E090E0DF91CF911F910F91FF90EF90EE
:100310000895F62E0B8D10E00F5F1F4F0F731127FE
:10032000E02E8C8D8E110CC00FB607FCFACFE88939
:10033000F989808185FFF5CFCE010E944001F1CF80
:10034000EB8DEC0FFD2FF11DE35AFF4FF0829FB7AD
:10035000F8940B8FEA89FB8980818062CFCFEF927E
:10036000FF920F931F93CF93DF938C017B01D0E01B
:10037000C0E0F701EC0FFD1F6491662339F0C8015E
:100380000E946201892B11F02196F3CFCE01DF91FB
:10039000CF911F910F91FF90EF900895CF93DF932E
:1003A000EC01888D8823B9F0AA89BB89E889F9898D
:1003B0008C9185FD03C0808186FD0DC00FB607FCC2
:1003C000F7CF8C9185FFF2CF808185FFEDCFCE01F5
:1003D0000E944001E9CFDF91CF91089581E0089517
:1003E00087E08CBF95EE9BBF1ABE8CBF86EE8BBF9D
:1003F0001ABE089590E080E0089597E09CBF87EED4
:100400008BBF2AB79CBF88EE8BBF8AB7322F282FAD
:100410009CBF85EE8BBF8AB79CBF96EE9BBF9AB7F9
:10042000892798278927821B930B4817590708F4B7
:10043000CA01A9014751584FFB01DB01A80FB91FA1
:10044000EA17FB0739F05CBF4BBF6AB761934F5F98
:100450005F4FF6CF280F391F47E04CBF57EE5BBF09
:100460003ABF4CBF38EE3BBF2ABF0895CF93DF930E
:100470001F92CDB7DEB7DC01ED91FC91028CF38DBC
:10048000E02D41E050E0BE016F5F7F4F09951816E7
:10049000190634F4898190E00F90DF91CF9108958F
:1004A0008FEF9FEFF9CFFC0197E09CBF85EE8BBFEC
:1004B0008AB79CBF26EE2BBF6AB79CBF27EE2BBF27
:1004C0002AB79CBF98EE9BBF3AB71CBE90E19BBF7A
:1004D0009AB71CBE4FE04BBF4AB71CBE5EE05BBF85
:1004E0005AB71CBE7DE07BBF7AB7708B518B428BB5
:1004F000938B1CBE91E19BBF4AB71CBE92E19BBF90
:100500009AB7542F492F558B448B982F862F23272A
:1005100032272327821B930B08951CBE83E18BBFD8
:100520008AB71CBE94E19BBF9AB789279827892771
:10053000FB019C012B5E3F4FDB01A40FB51FEA17A7
:10054000FB0739F061913CBF2BBF6ABF2F5F3F4F64
:10055000F6CF480F591F1CBE83E18BBF5ABF1CBE8C
:1005600084E18BBF4ABF90E080E00895CF93DF9392
:100570001F92CDB7DEB76983DC01ED91FC9102805B
:10058000F381E02D41E050E0BE016F5F7F4F0995A0
:100590000F90DF91CF9108951CBE1BBE8FEF8ABFD5
:1005A0001CBE1BBE82E08ABF90E080E00895FB0184
:1005B00032812381948185811CBE1BBE61E06ABFAC
:1005C0001CBE6DE06BBF3ABF1CBE3EE03BBF2ABF06
:1005D0001CBE2FE02BBF9ABF1CBE90E19BBF8ABF01
:1005E0001CBE81E18BBF5ABF1CBE82E18BBF4ABFDC
:1005F00081E090E008950895DC01ED91FC91008C7C
:10060000F18DE02D09941CBE8BE08BBF7ABF1CBE20
:100610008CE08BBF6ABF1CBE1BBE83E08ABF81E03B
:100620000895FC0184899589089522E431E0FC0154
:1006300031832083FB014089518962897389FC01E0
:1006400042835383648375830895DC01ED91FC91AB
:10065000028CF38DE02D099490E080E00895FB0179
:1006600001900020E9F73197AF01461B570BDC01E1
:10067000ED91FC910280F381E02D09948F929F927D
:10068000AF92BF92EF92FF920F931F93CF93DF939E
:10069000CDB7DEB7A1970FB6F894DEBF0FBECDBFC2
:1006A0007C01FA01CB0119A2223008F42AE08E0164
:1006B0000F5D1F4F822E912CB12CA12CBF01A501E3
:1006C00094010E943807F901CA016A300CF5605D97
:1006D000D8016E938D01232B242B252B79F790E0E5
:1006E00080E0109721F0BD01C7010E942F03A19661
:1006F0000FB6F894DEBF0FBECDBFDF91CF911F9133
:100700000F91FF90EF90BF90AF909F908F900895C2
:10071000695CDECF68E670E08FE591E00E94AF0192
:1007200064E471E08FE591E00E942F03989590E0DA
:1007300080E008958F929F92AF92BF92CF92DF9206
:10074000EF92FF920F931F93CF93DF937C01EB0106
:100750006C0182E0C80ED11C4701E5E08E0E911CB1
:1007600010E000E0F60141916F0150E070E060E0C0
:100770002AE0CE010E943E035C01E881F9810190EC
:10078000F081E02D6EE2CE0109958A0D9B1D080FC8
:10079000191FC814D90431F7F701458150E070E002
:1007A00060E02AE0CE010E943E03800F911FDF919E
:1007B000CF911F910F91FF90EF90DF90CF90BF905E
:1007C000AF909F908F9008951F920F920FB60F9247
:1007D00011242F933F938F939F93AF93BF93809157
:1007E0005B0190915C01A0915D01B0915E0130913F
:1007F0005A0123E0230F2D3758F50196A11DB11D95
:1008000020935A0180935B0190935C01A0935D015A
:10081000B0935E018091560190915701A0915801CB
:10082000B09159010196A11DB11D8093560190937D
:100830005701A0935801B0935901BF91AF919F9177
:100840008F913F912F910F900FBE0F901F90189591
:1008500026E8230F0296A11DB11DD2CF1F920F9241
:100860000FB60F9211242F933F934F935F936F9383
:100870007F938F939F93AF93BF93EF93FF938FE5F6
:1008800091E00E944001FF91EF91BF91AF919F9144
:100890008F917F916F915F914F913F912F910F9029
:1008A0000FBE0F901F9018951F920F920FB60F92C8
:1008B00011242F938F939F93EF93FF93E0916F01F8
:1008C000F09170018081E0917501F091760182FDD7
:1008D0001BC09081809178018F5F8F732091790187
:1008E000821741F0E0917801F0E0E15AFE4F958FD8
:1008F00080937801FF91EF919F918F912F910F90AD
:100900000FBE0F901F9018958081F4CFFC010FB699
:10091000F894609143027091440280914502909155
:1009200046020FBE309721F06083718382839383E8
:100930000895EFE5F1E01382128248EE53E060E0A3
:1009400070E0448355836683778388E091E09183E8
:10095000808385EC90E09587848784EC90E097878E
:10096000868780EC90E0918B808B81EC90E0938B7C
:10097000828B82EC90E0958B848B86EC90E0978B59
:10098000868B118E128E138E148EECEFF1E082E4C2
:1009900091E0918380831282138214821582EAE0AF
:1009A000F2E0918380831282138214821582E2E046
:1009B000F2E0918380831282138214821582E0E137
:1009C000F2E0918380831282138214821582E6E121
:1009D000F2E0918380831282138214821582EDE308
:1009E000F2E0918380831282138214821582E2E204
:1009F000F2E01382128244835583668377832AE16F
:100A000031E03183208397878687108A118A128A82
:100A1000138A24E0208FECE1F2E09183808380EC64
:100A2000828388EA838388E3848386E685830895C6
:100A3000CF93DF9300D000D000D0CDB7DEB778944D
:100A400084B5826084BD84B5816084BD85B58260D3
:100A500085BD85B5816085BD80916E008160809384
:100A60006E001092810080918100826080938100ED
:100A700080918100816080938100809180008160FD
:100A8000809380008091B10084608093B100809158
:100A9000B00081608093B00080917A008460809380
:100AA0007A0080917A00826080937A0080917A0047
:100AB000816080937A0080917A00806880937A00C8
:100AC0001092C100E0916F01F091700182E080838B
:100AD000E0916B01F0916C011082E0916D01F09159
:100AE0006E0180E1808310927701E0917301F091B3
:100AF000740186E08083E0917101F0917201808140
:100B000080618083E0917101F09172018081886041
:100B10008083E0917101F09172018081806880830F
:100B2000E0917101F091720180818F7D80836AE094
:100B300071E08FE591E00E94AF016DED70E08FE50F
:100B400091E00E94AF016AED70E08FE591E00E94B4
:100B5000AF016EEC70E08FE591E00E94AF016BECAD
:100B600070E08FE591E00E94AF0162EC70E08FE5EC
:100B700091E00E94AF0160EC70E08FE591E00E948F
:100B8000AF0164E471E08FE591E00E942F0388E0FB
:100B900080930402809305028093060280930702EB
:100BA00066E878E482E292E00E94030332E4E32EF6
:100BB00031E0F32E49EEA42E43E0B42E5AE0852E08
:100BC000912C6EE4C62E61E0D62E512C70E0672E7B
:100BD00070E0772E82E3482E90E3392E23E3222E15
:100BE0004092540130925501FA82E98280911E02AE
:100BF00090911F02A0912002B09121028B839C83CF
:100C0000AD83BE8346E858E4BE016F5F7F4F82E24A
:100C100092E00E94D70242E050E064E571E082E297
:100C200092E00E948D0282E292E00E94CC02109239
:100C300055011092540182E292E00E94FC02892B3D
:100C4000B9F082E292E00E9453021816190684F469
:100C500042E050E064E571E082E292E00E94FD0132
:100C60008C011816190684F082E292E00E94F001CD
:100C70006114710409F4B4CF0E942C01882309F493
:100C8000A9CF0E940000A6CF67E471E08FE591E054
:100C90000E942F03F801EC5AFE4F108264E571E0C8
:100CA0008FE591E00E942F0364E471E08FE591E00D
:100CB0000E942F03809154018133D1F690E080E0AF
:100CC0000E948604CB010E94FB060E94F606B50135
:100CD0000E946907B4010E9469077F936F93DF92B6
:100CE000CF921F9281E08F935F9210E01F930E943A
:100CF00097072092540110935501FA82E98280915E
:100D00001E0290911F02A0912002B09121028B83BC
:100D10009C83AD83BE8346E858E4BE016F5F7F4F7E
:100D200082E292E00E94D70242E050E064E571E086
:100D300082E292E00E948D0282E292E00E94CC0266
:100D400010925501109254010FB6F894DEBF0FBEF9
:100D5000CDBF8ECF8F929F92AF92BF92CF92DF92F4
:100D6000EF92FF92CF93DF93EC01688179818A81C2
:100D70009B81611571058105910521F464E279ED8E
:100D80008BE597E02DE133EF41E050E00E9406074C
:100D900049015A019B01AC01A7EAB1E40E94250771
:100DA0006B017C01ACEEB4EFA50194010E94330706
:100DB000DC01CB018C0D9D1DAE1DBF1DB7FF03C017
:100DC0000197A109B04888839983AA83BB839F7741
:100DD000DF91CF91FF90EF90DF90CF90BF90AF90D9
:100DE0009F908F9008950E94AA06089580E091E058
:100DF0000E94AA060895B0E0A0E0809300019093BD
:100E00000101A0930201B09303010895052E97FB01
:100E10001EF400940E941D0757FD07D00E9438075A
:100E200007FC03D04EF40C941D0750954095309567
:100E300021953F4F4F4F5F4F089590958095709546
:100E400061957F4F8F4F9F4F08950E945A07A59F2E
:100E5000900DB49F900DA49F800D911D11240895B5
:100E6000B7FF0C9425070E942507821B930B08955A
:100E7000A1E21A2EAA1BBB1BFD010DC0AA1FBB1F9E
:100E8000EE1FFF1FA217B307E407F50720F0A21B10
:100E9000B30BE40BF50B661F771F881F991F1A947D
:100EA00069F760957095809590959B01AC01BD01A7
:100EB000CF010895A29FB001B39FC001A39F700D01
:100EC000811D1124911DB29F700D811D1124911D52
:100ED000089597FB072E16F4009407D077FD09D0EC
:100EE0000E947D0707FC05D03EF4909581959F4FA9
:100EF0000895709561957F4F0895AA1BBB1B51E122
:100F000007C0AA1FBB1FA617B70710F0A61BB70B79
:100F1000881F991F5A95A9F780959095BC01CD011E
:100F20000895EE0FFF1F0590F491E02D0994AEE0B7
:100F3000B0E0EDE9F7E00C94530A0D891E898F8922
:100F4000988D26E02C831A83098397FF02C080E0E6
:100F500090E801979E838D83AE01455E5F4F698D5A
:100F60007A8DCE0101960E94C7074D815E8157FDA3
:100F70000AC02F813885421753070CF49A01020FDB
:100F8000131FF80110822E96E4E00C946F0AABE078
:100F9000B0E0EDECF7E00C94450A7C013B018A01DE
:100FA000FC0117821682838181FFC8C1CE010196A0
:100FB0005C01F7019381F30193FD859193FF81918A
:100FC0003F01882309F453C1853239F493FD85919B
:100FD00093FF81913F01853229F4B70190E00E948F
:100FE000B709E7CF912C212C312CFFE1F31538F014
:100FF0008B3211F190F4803209F1833229F137FC00
:101000003CC020ED280F2A3050F536FE20C08AE083
:10101000989E200D1124922E06C08D3291F08033BF
:1010200071F7689430F8F30193FD859193FF8191F6
:101030003F018111DACF21C0689431F8689432F809
:10104000F2CF689433F8EFCF689434F8ECCFEAE04D
:101050002E9E200D1124222E689435F8E4CF8E3276
:1010600029F436FC04C1689436F8DDCF8C3619F4C7
:10107000689437F8D8CF8836B1F2982F9F7D955471
:101080009330E0F08336A1F18337C1F1833509F065
:1010900063C02801F2E04F0E511CF801C080D180DE
:1010A000692D70E036FC02C06FEF7FEFC6010E9431
:1010B000A1094C01689437F882010AC00C5F1F4FE8
:1010C000FFE3F98388248394912C6501E89437F831
:1010D00033FE2DC0522C8114910471F5552009F472
:1010E00068CFB70180E290E00E94B7095A94F6CF2A
:1010F000F801808189830E5F1F4FE4CF2801F2E061
:101100004F0E511CF801C080D180692D70E036FC73
:1011100002C06FEF7FEFC6010E94AC094C01820153
:10112000D5CFB70180E290E00E94B7092A94281435
:10113000190409F0B0F7CECFF60137FC859137FEE0
:1011400081916F01B70190E00E94B70951105A9444
:10115000F1E08F1A9108BFCF843619F0893609F073
:1011600077C0F80137FE6BC0608171818281938105
:101170000C5F1F4FF32DFF763F2E97FF09C0909510
:101180008095709561957F4F8F4F9F4F689437F88A
:101190002AE030E0A5010E94E709C82ECA188C2C6D
:1011A000432C36FE0CC0E89440F8C91440F434FED9
:1011B00005C032FC03C0F32DFE7E4F2E892C44FE69
:1011C00095C0FE01EC0DF11D8081803309F087C0D0
:1011D000242D297E422E842D8870582E43FC95C0E4
:1011E00040FE8FC09C2C821418F42C0C922C981862
:1011F00044FE91C0B70180E390E00E94B70942FE2F
:1012000009C088E790E041FE02C088E590E0B701A0
:101210000E94B709C91408F48AC0CA94D12C9FEF60
:10122000C91AD90ACA0CDB1CF60182916F01B701F9
:1012300090E00E94B709AC14BD04B1F74FCF6081B4
:101240007181072E000C880B990B0E5F1F4F92CFF8
:10125000D32CE894D4F82AE030E0853739F1232DF7
:10126000297FD22E8F3601F148F48835A9F0F70195
:10127000868197812B96E2E10C94610A803749F0D0
:101280008837A9F7D4FE02C06894D2F820E130E094
:101290000DC06894D4F8F6CF34FE03C0822F866068
:1012A000D82E20E132E002C028E030E0F801D7FE7D
:1012B0000FC060817181828193810C5F1F4FA501F6
:1012C0000E94E709C82ECA183D2CE89437F867CF6A
:1012D0006081718190E080E00E5F1F4FF0CF42FC93
:1012E00002C0839478CF8394839475CF842D8678BD
:1012F00009F471CFF6CFB70180E290E00E94B70900
:1013000083948214C0F3512C73CF522C581882143A
:1013100008F46ECFF8CF842D867809F47BCF8BE26A
:1013200041FE80E247FC8DE2B70190E071CFB7014A
:1013300080E390E00E94B7099A946CCF8FEF9FEF03
:1013400099CFFC010590615070400110D8F780954D
:1013500090958E0F9F1F0895FC0161507040019081
:101360000110D8F7809590958E0F9F1F08950F93C9
:101370001F93CF93DF93182F092FEB018B8181FDF2
:1013800009C01FEF0FEF812F902FDF91CF911F9199
:101390000F91089582FF14C02E813F818C819D8121
:1013A000281739073CF4E881F981CF010196998328
:1013B000888310838E819F8101969F838E83E3CFE4
:1013C000E885F985812F0995892BA1F3DACFFA01F8
:1013D000AA27283051F1203181F1E8946F936E7F74
:1013E0006E5F7F4F8F4F9F4FAF4FB1E03ED0B4E065
:1013F0003CD0670F781F891F9A1FA11D680F791FA6
:101400008A1F911DA11D6A0F711D811D911DA11DB6
:1014100020D009F468943F912AE0269F11243019C6
:10142000305D3193DEF6CF010895462F4770405D61
:101430004193B3E00FD0C9F7F6CF462F4F70405D10
:101440004A3318F0495D31FD4052419302D0A9F76B
:10145000EACFB4E0A6959795879577956795BA9565
:10146000C9F700976105710508959B01AC010A2E2B
:1014700006945795479537952795BA95C9F7620F02
:10148000731F841F951FA01D08952F923F924F92A6
:101490005F926F927F928F929F92AF92BF92CF9204
:1014A000DF92EF92FF920F931F93CF93DF93CDB70D
:1014B000DEB7CA1BDB0B0FB6F894DEBF0FBECDBF85
:1014C00009942A88398848885F846E847D848C8456
:1014D0009B84AA84B984C884DF80EE80FD800C815F
:1014E0001B81AA81B981CE0FD11D0FB6F894DEBF42
:0C14F0000FBECDBFED010895F894FFCFB2
:1014FC0001000000000000006201C200EF00CE01FC
:10150C002001FE00120100000000B6028D022C0327
:10151C00F001FC023602FA010303FB02D7028A0334
:10152C00CC025302FD01250315031103EE0100004B
:10153C0000009A030D0A0053656E743A20002530A2
:04154C003264000005
:00000001FF
