:100000000C948A000C94B2000C94B2000C94B200D0
:100010000C94B2000C94B2000C94B2000C949604B0
:100020000C94B2000C94B2000C94B2000C94B20088
:100030000C94B2000C94B2000C94B2000C94B20078
:100040000C944C040C94B2000C947F050C9459054C
:100050000C94B2000C94B2000C94B2000C94B20058
:100060000C94B2000C94B2005A73757445746865B0
:10007000726E65745544503A3A626567696E5061B4
:10008000636B657428636F6E73742063686172209C
:100090002A686F73742C2075696E7431365F742012
:1000A000706F7274293B206973206E6F74207375B2
:1000B00070706F727465642120536F7272792100C1
:1000C0000000000800020100000304070000000017
:1000D000000000000200000000250028002B0000A6
:1000E000000000240027002A00040404040404047F
:1000F00004020202020202030303030303010204D7
:100100000810204080010204081020010204081099
:100110002000B10511241FBECFEFD8E0DEBFCDBF58
:1001200011E0A0E0B1E0E0EBF1E102C005900D923A
:10013000A43BB107D9F722E0A4EBB1E001C01D92C6
:10014000AA3CB207E1F710E0CAE8D0E004C021976A
:10015000FE010E94D008C938D107C9F70E943006B5
:100160000C94D6080C940000089590E0FC01E35034
:10017000FF4F249187519F4FFC018491882399F070
:1001800090E0880F991FFC01E152FF4FA591B491B7
:10019000FC01EB52FF4F859194918FB7F894EC914D
:1001A000E22BEC938FBF08953FB7F8948091E20162
:1001B0009091E301A091E401B091E50126B5A89BDF
:1001C00005C02F3F19F00196A11DB11D3FBFBA2FE9
:1001D000A92F982F8827BC01CD01620F711D811DA9
:1001E000911D42E0660F771F881F991F4A95D1F72E
:1001F00008958F929F92AF92BF92CF92DF92EF922B
:10020000FF924B015C010E94D4006B017C010E94B3
:10021000D4006C197D098E099F09683E73408105E1
:100220009105A8F321E0821A9108A108B10888EE8F
:10023000C80E83E0D81EE11CF11C81149104A104B6
:10024000B10429F7FF90EF90DF90CF90BF90AF906F
:100250009F908F900895AF92BF92CF92DF92EF92CE
:10026000FF920F931F93CF93DF936C017B018B0160
:10027000040F151FEB015E01AE18BF08C017D107B0
:1002800059F06991D601ED91FC910190F081E02D3A
:10029000C6010995892B79F7C501DF91CF911F918F
:1002A0000F91FF90EF90DF90CF90BF90AF900895A7
:1002B000FC01538D448D252F30E0842F90E0821B6C
:1002C000930B541710F0CF96089501970895FC01F1
:1002D000918D828D981761F0A28DAE0FBF2FB11D49
:1002E0005D968C91928D9F5F9F73928F90E00895A1
:1002F0008FEF9FEF0895FC01918D828D981731F05B
:10030000828DE80FF11D858D90E008958FEF9FEFAE
:100310000895FC01918D228D892F90E0805C9F4F84
:10032000821B91098F739927089586EE91E00E94B0
:10033000890121E0892B09F420E0822F089580E0D3
:1003400090E0892B29F00E94950181110C94000006
:100350000895FC01A48DA80FB92FB11DA35ABF4F5A
:100360002C91848D90E001968F739927848FA689B4
:10037000B7892C93A089B1898C91837080648C9308
:10038000938D848D981306C00288F389E02D8081B7
:100390008F7D80830895EF92FF920F931F93CF93E9
:1003A000DF93EC0181E0888F9B8D8C8D98131AC0B0
:1003B000E889F989808185FF15C09FB7F894EE8997
:1003C000FF896083E889F9898081837080648083F4
:1003D0009FBF81E090E0DF91CF911F910F91FF903F
:1003E000EF900895F62E0B8D10E00F5F1F4F0F73E7
:1003F0001127E02E8C8D8E110CC00FB607FCFACFA2
:10040000E889F989808185FFF5CFCE010E94A90195
:10041000F1CFEB8DEC0FFD2FF11DE35AFF4FF08272
:100420009FB7F8940B8FEA89FB8980818062CFCFD8
:10043000CF93DF93EC01888D8823B9F0AA89BB891B
:10044000E889F9898C9185FD03C0808186FD0DC006
:100450000FB607FCF7CF8C9185FFF2CF808185FF27
:10046000EDCFCE010E94A901E9CFDF91CF91089590
:1004700081E0089587E08CBF95EE9BBF1ABE8CBFCC
:1004800086EE8BBF1ABE089590E080E0089597E055
:100490009CBF87EE8BBF2AB79CBF88EE8BBF8AB705
:1004A000322F282F9CBF85EE8BBF8AB79CBF96EE5C
:1004B0009BBF9AB7892798278927821B930B4817D8
:1004C000590708F4CA01A9014751584FFB01DB0144
:1004D000A80FB91FEA17FB0739F05CBF4BBF6AB71B
:1004E00061934F5F5F4FF6CF280F391F47E04CBF36
:1004F00057EE5BBF3ABF4CBF38EE3BBF2ABF0895F3
:10050000CF93DF931F92CDB7DEB7DC01ED91FC9165
:10051000028CF38DE02D41E050E0BE016F5F7F4F14
:1005200009951816190634F4898190E00F90DF912F
:10053000CF9108958FEF9FEFF9CFFC0197E09CBF1B
:1005400085EE8BBF8AB79CBF26EE2BBF6AB79CBFD8
:1005500027EE2BBF2AB79CBF98EE9BBF3AB71CBEB5
:1005600090E19BBF9AB71CBE4FE04BBF4AB71CBE81
:100570005EE05BBF5AB71CBE7DE07BBF7AB7708B75
:10058000518B428B938B1CBE91E19BBF4AB71CBE23
:1005900092E19BBF9AB7542F492F558B448B982FCC
:1005A000862F232732272327821B930B08951CBEF7
:1005B00083E18BBF8AB71CBE94E19BBF9AB78927A2
:1005C00098278927FB019C012B5E3F4FDB01A40F7D
:1005D000B51FEA17FB0739F061913CBF2BBF6ABF1B
:1005E0002F5F3F4FF6CF480F591F1CBE83E18BBFD3
:1005F0005ABF1CBE84E18BBF4ABF90E080E00895E3
:10060000CF93DF931F92CDB7DEB76983DC01ED9105
:10061000FC910280F381E02D41E050E0BE016F5F6C
:100620007F4F09950F90DF91CF9108951CBE1BBE9F
:100630008FEF8ABF1CBE1BBE82E08ABF90E080E0C5
:100640000895FB0132812381948185811CBE1BBEEC
:1006500061E06ABF1CBE6DE06BBF3ABF1CBE3EE0EE
:100660003BBF2ABF1CBE2FE02BBF9ABF1CBE90E130
:100670009BBF8ABF1CBE81E18BBF5ABF1CBE82E1FB
:100680008BBF4ABF81E090E008950895DC01ED91B1
:10069000FC91008CF18DE02D09941CBE8BE08BBF8A
:1006A0007ABF1CBE8CE08BBF6ABF1CBE1BBE83E042
:1006B0008ABF81E00895FC018489958908952FE31C
:1006C00031E0FC0131832083FB014089518962893B
:1006D0007389FC014283538364837583089590E09A
:1006E00080E00895DC01ED91FC91028CF38DE02D0A
:1006F0000994FB0101900020E9F73197AF01461BF7
:10070000570BDC01ED91FC910280F381E02D0994FF
:100710008F929F92AF92BF92EF92FF920F931F938F
:10072000CF93DF93CDB7DEB7A1970FB6F894DEBFB6
:100730000FBECDBF7C01FA01CB0119A2223008F413
:100740002AE08E010F5D1F4F822E912CB12CA12C1F
:10075000BF01A50194010E94AE08F901CA016A30E7
:100760000CF5605DD8016E938D01232B242B252B76
:1007700079F790E080E0109721F0BD01C7010E9459
:100780007903A1960FB6F894DEBF0FBECDBFDF91FF
:10079000CF911F910F91FF90EF90BF90AF909F90DE
:1007A0008F900895695CDECF8F929F92AF92BF9237
:1007B000CF92DF92EF92FF920F931F93CF93DF932D
:1007C0007C01EB016C0182E0C80ED11C4701E5E021
:1007D0008E0E911C10E000E0F60141916F0150E097
:1007E00070E060E02AE0CE010E9488035C01E881AD
:1007F000F9810190F081E02D6EE2CE0109958A0D1C
:100800009B1D080F191FC814D90431F7F701458142
:1008100050E070E060E02AE0CE010E948803800F83
:10082000911FDF91CF911F910F91FF90EF90DF907B
:10083000CF90BF90AF909F908F900895CF93DF930C
:10084000BC0186EE91E00E947903EC0161E471E065
:1008500086EE91E00E9479038C0F9D1FDF91CF916E
:100860000895CF93DF93C8E6D0E0FE01649166233C
:1008700039F086EE91E00E94CB012196892BA9F7F1
:1008800061E471E086EE91E00E947903989590E032
:1008900080E0DF91CF9108951F920F920FB60F92D3
:1008A00011242F933F938F939F93AF93BF93809186
:1008B000DE019091DF01A091E001B091E101309162
:1008C000DD0123E0230F2D3758F50196A11DB11D41
:1008D0002093DD018093DE019093DF01A093E0017E
:1008E000B093E1018091E2019091E301A091E401D4
:1008F000B091E5010196A11DB11D8093E201909395
:10090000E301A093E401B093E501BF91AF919F9102
:100910008F913F912F910F900FBE0F901F901895C0
:1009200026E8230F0296A11DB11DD2CF1F920F9270
:100930000FB60F9211242F933F938F939F93AF93F2
:10094000BF93EF93FF938091B9019091BA01A09169
:10095000BB01B091BC01892B8A2B8B2BB1F19091FB
:10096000B401E091B501F091B601808189278083BF
:100970008091B9019091BA01A091BB01B091BC01E5
:10098000181619061A061B069CF48091B90190915D
:10099000BA01A091BB01B091BC010197A109B109B5
:1009A0008093B9019093BA01A093BB01B093BC01AD
:1009B000FF91EF91BF91AF919F918F913F912F91B7
:1009C0000F900FBE0F901F90189580910001E4EDDD
:1009D000F0E0E4919FEF90930001E13009F431C021
:1009E00068F1E23009F433C090E0FC01E054FF4FBD
:1009F0002491FC01E350FF4F3491FC01E751FF4F7C
:100A0000E491EE23A9F2222351F0233009F43AC0F5
:100A100078F5213009F43CC0223009F43DC0F0E003
:100A2000EE0FFF1FEB52FF4FA591B4918FB7F894D3
:100A3000EC9130953E233C938FBFBACF10926E005D
:100A4000D3CF90916F009D7F90936F00CDCF909109
:100A500070009D7F9093700091E09093B000909112
:100A6000B100987F94609093B1001092B300BCCF16
:100A70002730A9F02830C9F0243089F68091800011
:100A80008F7D03C0809180008F7780938000C7CFD7
:100A900084B58F7784BDC3CF84B58F7DFBCF809124
:100AA000B0008F778093B000BACF8091B0008F7D77
:100AB000F9CF1F920F920FB60F9211242F933F93ED
:100AC0004F935F936F937F938F939F93AF93BF9356
:100AD000EF93FF9386EE91E00E94A901FF91EF91C1
:100AE000BF91AF919F918F917F916F915F914F9146
:100AF0003F912F910F900FBE0F901F9018951F924E
:100B00000F920FB60F9211242F938F939F93EF9311
:100B1000FF93E091F601F091F7018081E091FC01F3
:100B2000F091FD0182FD1BC090818091FF018F5FDC
:100B30008F7320910002821741F0E091FF01F0E0F5
:100B4000EA51FE4F958F8093FF01FF91EF919F91A6
:100B50008F912F910F900FBE0F901F90189580814D
:100B6000F4CFE6EEF1E01382128248EE53E060E04B
:100B700070E0448355836683778385E091E09183B9
:100B8000808385EC90E09587848784EC90E097875C
:100B9000868780EC90E0918B808B81EC90E0938B4A
:100BA000828B82EC90E0958B848B86EC90E0978B27
:100BB000868B118E128E138E148EE3E8F2E08FE393
:100BC00091E0918380831282138214821582E1E97D
:100BD000F2E0918380831282138214821582E9E805
:100BE000F2E0918380831282138214821582E7E9F6
:100BF000F2E0918380831282138214821582EDE9E0
:100C0000F2E0918380831282138214821582E4ECD5
:100C1000F2E0918380831282138214821582EEEBBC
:100C2000F2E09183808320EC228328EA238328E367
:100C3000248326E62583E3EAF2E0138212824483CA
:100C400055836683778327E131E03183208397875B
:100C50008687108A118A128A138A84E0808F089509
:100C6000CF93DF93CDB7DEB72C970FB6F894DEBFE6
:100C70000FBECDBF789484B5826084BD84B5816099
:100C800084BD85B5826085BD85B5816085BD809157
:100C90006E00816080936E001092810080918100CF
:100CA00082608093810080918100816080938100C7
:100CB000809180008160809380008091B100846089
:100CC0008093B1008091B00081608093B0008091EA
:100CD0007A00846080937A0080917A0082608093A9
:100CE0007A0080917A00816080937A0080917A0006
:100CF000806880937A001092C10082E00E94B50063
:100D0000E091F601F091F70182E08083E091F20139
:100D1000F091F3011082E091F401F091F5018FEC74
:100D200080831092FE01E091FA01F091FB0186E0D0
:100D30008083E091F801F091F901808180618083E6
:100D4000E091F801F091F901808188608083E09161
:100D5000F801F091F901808180688083E091F801C9
:100D6000F091F90180818F7D808369E77BE383EADD
:100D700092E00E944D0384E491E00E941E044BEE39
:100D8000642E40E0742E5FEFE52E50E0F52E68E013
:100D9000862E6CE0962EA12CB12C3FE3C32E31E0C1
:100DA000D32EE5ECF1E088E111928A95E9F792E320
:100DB0009093C5014091B7025091B802DA82C9827E
:100DC0008091B3029091B402A091B502B091B602A5
:100DD0008B839C83AD83BE83BE016F5F7F4F83EAAD
:100DE00092E00E94210348E150E065EC71E083EA63
:100DF00092E00E94D70283EA92E00E94160383EAFF
:100E000092E00E949D021C01892B09F459C169E4FA
:100E100071E086EE91E00E947903032C000C4408F7
:100E200055082AE0B201A10157FE0DC06DE286EE21
:100E300091E00E94CB0144275527BA01421953097A
:100E4000640975092AE086EE91E00E94880361E456
:100E500071E086EE91E00E94790362E671E086EE31
:100E600091E00E9479038091B3029091B402A09125
:100E7000B502B091B60289879A87AB87BC872E01ED
:100E8000E9E04E0E511C10E000E0F20141912F010B
:100E900050E070E060E02AE086EE91E00E94880376
:100EA0000330110531F068E671E086EE91E00E94B2
:100EB00079030F5F1F4F0430110539F76AE671E0BF
:100EC00086EE91E00E9479034091B7025091B802FA
:100ED00070E060E02AE086EE91E00E94880361E421
:100EE00071E086EE91E00E94790348E150E065EC04
:100EF00071E083EA92E00E94720382E791E00E942F
:100F00001E0485EC91E00E941E041091C501612F22
:100F100086EE91E00E94CB0161E471E086EE91E003
:100F20000E947903113309F0E0C08CE791E00E9440
:100F30001E0480910001823029F5E4EDF0E0149167
:100F400017FDBEC082E00E94B500112309F488C0DD
:100F5000123009F099C08091B100887F856080933C
:100F6000B1008DE88093B3008092B9019092BA01EC
:100F7000A092BB01B092BC0180917000826080930E
:100F800070009EC08F3F09F09BC082E080930001FB
:100F9000E4EDF0E014911F3F09F492C0113011F11B
:100FA00048F0123009F43BC017FD8AC082E00E946D
:100FB000B500CECF14BC15BC84B5826084BD85B5A8
:100FC000816085BDF3018491E82FF0E0EE0FFF1FF3
:100FD000EB52FF4F85919491F70184918093B80172
:100FE00010E0B0CF109280001092810080918100BB
:100FF000886080938100809181008160809381006E
:10100000F3018491E82FF0E0EE0FFF1FEB52FF4F4A
:1010100085919491F70184918093B70193CF1092B9
:10102000B0001092B1008091B00082608093B00057
:101030008091B10081608093B100F3018491E82F29
:10104000F0E0EE0FFF1FEB52FF4F859194919093CC
:10105000B6018093B501F70184918093B40172CFFA
:1010600085B5887F846085BD86E487BD8092C10197
:101070009092C201A092C301B092C40180916E000F
:10108000826080936E001CC0113009F061C08091B5
:101090008100887F81608093810084E097E4909351
:1010A0008900809388008092BD019092BE01A09239
:1010B000BF01B092C00180916F00826080936F0089
:1010C0006AE070E080E090E00E94F900E0E0F0E08B
:1010D000EF2B09F466CE0E949501882309F461CEB6
:1010E0000E9400005ACE84E03DCF8EE891E00E943D
:1010F0001E04103329F78EE991E00E941E0464E675
:1011000070E080E090E00E94F9004091B7025091B9
:10111000B802DA82C9828091B3029091B402A091A0
:10112000B502B091B6028B839C83AD83BE83BE01B2
:101130006F5F7F4F83EA92E00E94210360E383EABE
:1011400092E00E94000383EA92E00E941603B8CF67
:10115000123049F21111B4CF84E087CFA1E21A2EE8
:10116000AA1BBB1BFD010DC0AA1FBB1FEE1FFF1F4B
:10117000A217B307E407F50720F0A21BB30BE40B9B
:10118000F50B661F771F881F991F1A9469F76095E2
:101190007095809590959B01AC01BD01CF0108959C
:1011A000EE0FFF1F0590F491E02D0994F894FFCF06
:1011B000FF00000000CB012B0158011802890167D4
:1011C000017B01000000000003D7026F033A0246D2
:1011D00003800244024D0345032103310416039D9D
:1011E00002470272035F035B03380200000000D471
:1011F000030D0A0048656A210052656365697665DA
:1012000064207061636B6574206F662073697A6512
:10121000200046726F6D20002E002C20706F7274BB
:101220002000436F6E74656E74733A004F6467728A
:101230007977616D2064C5BA7769C4996B00556E82
:101240006B6E6F776E20636F6D6D616E6400437AB5
:1012500079206A657374656D20646F7374C49970C6
:041260006E790000A3
:00000001FF
